:020000040800F2
:1000000000000220C9170008991700089B17000874
:100010009D1700089F170008A117000800000000A6
:10002000000000000000000000000000A31700080E
:10003000A517000800000000A7170008A91700086E
:1000400019180008191800081918000819180008CC
:1000500019180008191800081918000819180008BC
:1000600019180008191800081918000819180008AC
:10007000191800081918000819180008191800089C
:10008000191800081918000819180008191800088C
:10009000191800081918000819180008191800087C
:1000A000191800081918000819180008191800086C
:1000B000191800081918000819180008191800085C
:1000C000191800081918000819180008191800084C
:1000D000191800081918000819180008191800083C
:1000E000191800081918000819180008191800082C
:1000F000191800081918000819180008191800081C
:10010000191800081918000819180008191800080B
:1001100019180008191800081918000819180008FB
:1001200019180008191800081918000819180008EB
:1001300019180008191800081918000819180008DB
:1001400019180008191800081918000819180008CB
:1001500019180008191800081918000819180008BB
:1001600019180008191800081918000819180008AB
:1001700019180008191800081918000800000000D4
:08018000191800081918000805
:1001880010B5054C237833B9044B13B10448AFF3C9
:1001980000800123237010BD0C0000200000000027
:1001A8007418000808B5034B1BB103490348AFF3A3
:1001B800008008BD0000000010000020741800082E
:1001C80053B94AB9002908BF00281CBF4FF0FF31B6
:1001D8004FF0FF3000F07AB9ADF1080C6DE904CEAC
:1001E80000F006F8DDF804E0DDE9022304B070470A
:1001F8002DE9F0478C460D460446089E002B51D148
:100208008A4217466DD9B2FA82FEBEF1000F0BD0B2
:10021800CEF1200C01FA0EF520FA0CFC02FA0EF7CA
:100228004CEA050C00FA0EF44FEA174A250CBCFB01
:10023800FAF81FFA87F90AFB18CC45EA0C4508FBBF
:1002480009F3AB420AD9ED1908F1FF3280F0238196
:10025800AB4240F22081A8F102083D44ED1AA4B255
:10026800B5FBFAF00AFB105544EA054400FB09F90E
:10027800A14509D9E41900F1FF3380F00A81A145AD
:1002880040F2078102383C44A4EB090440EA0840E4
:100298000021002E61D024FA0EF40023346073602C
:1002A800BDE8F0878B4207D9002E54D0002186E89C
:1002B80021000846BDE8F087B3FA83F1002940F031
:1002C8008E80AB4202D3824200F2FA80841A65EB38
:1002D80003050120AC46002E3FD086E81010BDE88B
:1002E800F08712B90127B7FBF2F7B7FA87FEBEF11C
:1002F800000F34D1EB1B3A0C1FFA87FC0121B3FB2A
:10030800F2F8250C02FB183345EA03450CFB08F309
:10031800AB4207D9ED1908F1FF3002D2AB4200F227
:10032800D1808046ED1AA3B2B5FBF2F002FB10555E
:1003380043EA05440CFB00FCA44507D9E41900F185
:10034800FF3302D2A44500F2B8801846A4EB0C048F
:1003580040EA08409DE731463046BDE8F087CEF1D7
:10036800200405FA0EF307FA0EF720FA04F83A0CFF
:1003780025FA04F448EA0308B4FBF2F14FEA1845F9
:1003880002FB11441FFA87FC45EA044501FB0CF304
:10039800AB4200FA0EF409D9ED1901F1FF3080F0F3
:1003A8008A80AB4240F2878002393D44EB1A1FFA3B
:1003B80088F5B3FBF2F002FB103345EA034500FB76
:1003C8000CF3AB4207D9ED1900F1FF386FD2AB42FD
:1003D8006DD902383D44EB1A40EA01418FE7C1F17B
:1003E800200722FA07F88B4005FA01F448EA0303CC
:1003F80020FA07FE4FEA134CFD404EEA040EB5FB07
:10040800FCF94FEA1E440CFB19551FFA83F844EA1D
:10041800054509FB08F4AC4202FA01F200FA01FAB8
:1004280008D9ED1809F1FF3043D2AC4241D9A9F1FE
:1004380002091D442D1B1FFA8EFEB5FBFCF00CFBB8
:1004480010554EEA054400FB08F8A04507D9E41802
:1004580000F1FF3529D2A04527D902381C4440EACB
:100468000940A4EB0804A0FB02894C45C6464D464A
:1004780015D312D056B1BAEB0E0364EB050404FA97
:1004880007F7CB401F43CC40376074600021BDE8BC
:10049800F0871846F8E69046E0E6C245EAD2B8EB9F
:1004A800020E69EB03050138E4E72846D7E7404622
:1004B80091E78146BEE7014678E702383C4445E7C4
:1004C800084608E7A8F102083D442BE7704700BF3B
:1004D80038B50E4A0E4B054618784FF47A73B3FBBD
:1004E800F0F31068B0FBF3F000F052FA044658B984
:1004F8000F2D09D8024629464FF0FF3000F014FAB4
:10050800044B20461D6038BD012038BD080000207E
:10051800000000200400002008B50B4B1A6842F4C4
:1005280000721A601A6842F480621A601A6842F40B
:1005380080721A60032000F0E5F90020FFF7C8FF79
:1005480001F0A4F8002008BD003C0240034A044B17
:1005580011681B780B441360704700BF2800002007
:1005680000000020014B1868704700BF28000020D9
:1005780038B50446FFF7F6FF631C1CBF054B1B7814
:10058800054618BFE418FFF7EDFF401B8442FAD870
:1005980038BD00BF0000002038B50446002800F030
:1005A8009B80056C25B901F08DF8656484F83C5092
:1005B800236CDB0600F18E80236C23F4885323F030
:1005C800020343F002032364444B5A6822F4403286
:1005D8005A605A6861680A435A60236821695A68F0
:1005E80022F480725A605A6842EA01225A605A68B4
:1005F800A16822F040725A605A680A435A609A68A1
:10060800E16822F400629A609A680A439A60344961
:10061800A26A8A4252D0996821F0706199609968FB
:100628000A439A609A68E16A22F040529A609A688E
:100638000A439A609A68217E22F002029A609A68B8
:1006480042EA41029A6094F82020002A3ED05A6873
:10065800616A42F400625A605A6822F460425A6041
:100668005A68013942EA41325A60DA6AE16922F489
:100678007002DA62DA6A013942EA0152DA629A6889
:1006880094F8301022F400729A609A6842EA412283
:100698009A609A68616922F480629A609A68002078
:1006A80042EA81229A606064236C23F0030343F0DA
:1006B80001032364002384F83C3038BD9A6822F093
:1006C80070629A609A6822F04052B2E75A6822F43F
:1006D8000062C9E70120EDE7012038BD0023014091
:1006E8000100000F82B00023019390F83C30012BE9
:1006F80061D0012380F83C3003689A68D10705D59A
:100708009A68D20714D4002002B070479A682B491F
:1007180042F001029A602A4A1268B2FBF1F202EB37
:1007280042020192019A002AEAD0019A013AF8E7B6
:10073800026C22F4E06222F0010242F48072026448
:100748005A68510541BF026C22F4405242F480526B
:100758000264026C12F480521CBF426C22F0060242
:100768004264002280F83C206FF022021A60154A89
:10077800516811F01F0F14491AD18B4206D001F5A8
:1007880080718B420BD15268D206BCD1986810F0A8
:100798004050B8D19A6842F080429A60B4E70B4959
:1007A8008B42B0D1526802F01F020F2AEED9AAE795
:1007B8008B42A8D1EAE70220A6E700BF40420F001B
:1007C80008000020002301400020014000220140D1
:1007D8000368D86C70470000F7B50023019390F8C0
:1007E8003C30012B00F083800D6804688A6801237F
:1007F800092D80F83C30AEB22AD906EB4603E768EB
:100808001E3B4FF0070E0EFA03FE27EA0E07E760BD
:10081800E76802FA03F33B43E3604A68062A4FEAB3
:10082800820325D81344676B591F1F238B4027EA7F
:1008380003036363626B06FA01F1114361632D4B95
:100848009C4234D0002380F83C30184603B0F0BDF9
:10085800276905EB45034FF0070E0EFA03FE27EA5A
:100868000E072761276902FA03F33B432361D4E7A4
:100878000C2A0ED81344216BA3F123021F239340A3
:1008880021EA03032363236B06FA02F21A43226365
:10089800D5E71344E16A413B1F229A4021EA02024C
:1008A800E262E26A06FA03F11143E162C7E7122D38
:1008B80004D1114A536843F480035360A5F110032F
:1008C800012BBFD80C4A5368102D43F40003536022
:1008D800B8D10A4B0A4A1B68B3FBF2F20A23534306
:1008E8000193019B002BADD0019B013BF8E702204F
:1008F800ACE700BF002001400023014008000020B1
:1009080040420F00074AD36823F4E0631B041B0C22
:1009180043F0BF63000243F4003300F4E060034394
:10092800D360704700ED00E0174B30B5DC68C4F3C6
:100938000224C4F10703251D042B28BF0423062D18
:100948004FF0010505FA03F303F1FF338CBF033CB5
:1009580000241940A14005FA04F4013C2240002873
:1009680042EA01024FEA0212ADBF00F1604000F016
:100978000F00064B00F56140B5BFD2B2D2B21A548F
:1009880080F8002330BD00BF00ED00E014ED00E06A
:100998000138B0F1807F0AD2064B074A5860F0212F
:1009A80082F823100020072298601A6070470120FF
:1009B800704700BF10E000E000ED00E02DE9F04FC7
:1009C80085B00B68DFF8AC81684ADFF8AC91019319
:1009D80000230124019D9C402540AC4240F0B0809A
:1009E8004C6824F0100C0CF1FF36012E4FEA430E30
:1009F80012D88768032606FA0EF627EA0607CE6895
:100A080006FA0EF63E4386604768C4F3001627EAE6
:100A180005079E403E4346600326C76806FA0EF661
:100A2800F64307EA060A8F6807FA0EF747EA0A0745
:100A3800BCF1020FC76016D14FEAD30A00EB8A0A4D
:100A480003F0070BDAF820704FEA8B0B4FF00F0C0E
:100A58000CFA0BFC27EA0C0C0F6907FA0BF747EAAC
:100A68000C07CAF8207007683E4004F0030707FA2D
:100A78000EFE4EEA06060660E60061D54FF0000B52
:100A8800CDF80CB0D8F84470394E47F48047C8F810
:100A98004470D8F8447007F480470397039F23F005
:100AA800030707F1804707F59C3703F0030CD7F8D5
:100AB80008A04FEA8C0C4FF00F0E0EFA0CFEB04255
:100AC8002AEA0E0E43D006F58066B04241D006F5FC
:100AD8008066B0423FD006F58066B0423DD006F54C
:100AE8008066B0423BD048453BD006F50066B04230
:100AF80039D006F58066B04214BF0826072606FAE4
:100B08000CF646EA0E06BE601668EF4314F4803F02
:100B18000CBF3E402E431660566814F4003F0CBFCD
:100B28003E402E435660966814F4801F0CBF3E402A
:100B38002E439660D668A40254BF3E402E43D6602A
:100B48000133102B7FF445AF05B0BDE8F08F5E464A
:100B5800D5E70126D3E70226D1E70326CFE7042607
:100B6800CDE70526CBE70626C9E700BF003C0140D4
:100B78000000024000380240001402400AB18161BE
:100B880070470904FBE7436931EA030308BF090416
:100B9800816170472DE9F341044608B901203FE01F
:100BA8000368DD0710D4236898075AD423681A0706
:100BB80000F19C8023685B0700F1BA80A0690028D7
:100BC80040F01B8100202BE0A44B9A6802F00C0235
:100BD800042A07D09A6802F00C02082A0AD15B6836
:100BE800590207D59D4B1B689A03DCD56368002B17
:100BF800D9D1D3E76368994DB3F5803F13D12B68FA
:100C080043F480332B60FFF7ADFC944D06462B6808
:100C18009B03C8D4FFF7A6FC801B6428F7D90320E0
:100C280002B0BDE8F081B3F5A02F04D12B6843F4DE
:100C380080232B60E3E72A6822F480322A602A683E
:100C480022F480222A60002BDDD1FFF78BFC0646B8
:100C58002B689F03A7D5FFF785FC801B6428F7D96D
:100C6800DDE77E4B9A6812F00C0F07D09A6802F005
:100C78000C02082A11D15B685E020ED4774B1A6801
:100C8800950702D5E268012A88D11A68216922F0FD
:100C9800F80242EAC1021A6088E7E268704BB2B112
:100CA80001221A60FFF75EFC6C4D06462B68980718
:100CB80007D52B68226923F0F80343EAC2032B60A7
:100CC80074E7FFF74FFC801B0228EFD9A7E71A60EB
:100CD800FFF748FC614D06462B6899077FF566AF1C
:100CE800FFF740FC801B0228F6D998E762695D4B44
:100CF8007AB101221A60FFF735FC584D06466B6F32
:100D08009F073FF557AFFFF72DFC801B0228F6D948
:100D180085E71A60FFF726FC504D06466B6F98076B
:100D28007FF548AFFFF71EFC801B0228F6D976E74F
:100D38004A4B1A6C12F0805228D101921A6C42F078
:100D480080521A641B6C03F080530193019B0126A7
:100D5800454D2B68D9051BD5A368404D012B27D1DC
:100D68002B6F43F001032B67FFF7FCFB3B4D074656
:100D780041F288382B6F9B0739D5002E3FF41EAF00
:100D8800364A136C23F08053136417E70026DFE715
:100D98002B6843F480732B60FFF7E4FB07462B684E
:100DA800DA05D9D4FFF7DEFBC01B0228F7D936E7EE
:100DB800052B04D12B6F43F004032B67D0E72A6F70
:100DC80022F001022A672A6F22F004022A67002B08
:100DD800CAD1FFF7C7FB41F2883807462B6F98073F
:100DE800CBD5FFF7BFFBC01B4045F7D917E7FFF787
:100DF800B9FBC01B4045BDD911E7184DAB6803F0DE
:100E08000C03082B47D0194E00230228336035D134
:100E1800FFF7A8FB07462B68990129D4226AE369E2
:100E28001343626A43EA8213E26A43EA0263A26AEC
:100E38000A4C5208013A43EA02436B6001233360CB
:100E4800FFF790FB054623689A013FF5BBAEFFF715
:100E580089FB401B0228F6D9E1E600BF00380240B2
:100E680000004742800E4742007000406000474241
:100E7800FFF778FBC01B0228CDD9D0E6FFF772FB3D
:100E880004462B689B017FF59DAEFFF76BFB001BAB
:100E98000228F6D9C3E601283FF4C2AEA868E36980
:100EA80000F480029A427FF479AE226A00F03F0390
:100EB80093427FF473AE626A47F6C073034093426D
:100EC8007FF46CAEA26A00F4403393427FF466AEBE
:100ED800E36A00F07060C01A18BF0120A0E600BFE6
:100EE800134908B58B6803F00C03042B03D0082BB7
:100EF80003D0104808BD104808BD4A684B684968C7
:100F080013F4800314BF0C480A48C1F3881118BFB2
:100F1800002302F03F02A1FB0001FFF751F9044B47
:100F28005B68C3F3014301335B00B0FBF3F008BD1A
:100F3800003802400024F40040787D012DE9F0419A
:100F48000D46044610B90120BDE8F081444B1A68EB
:100F580002F00F028A4229D321688F072ED4C807CE
:100F680041D43F4B1A6802F00F02954267D32268BA
:100F780051076DD4130707D53A4A2169936823F4BA
:100F8800604343EAC1039360FFF7AAFF354B364A33
:100F98009B68C3F30313D35CD840344B1860344BBD
:100FA8001868FFF795FA0020BDE8F081CAB21A70F8
:100FB8001B6803F00F039942C5D1CDE7294B11F007
:100FC800040F1EBF9A6842F4E0529A600E0742BFAF
:100FD8009A6842F460429A609A68A06822F0F00227
:100FE80002439A60BBE762681E4B012A1DD11B6849
:100FF80013F4003FA7D01B4EB36823F00303134339
:10100800B360FFF7AFFA41F288380746B368626801
:1010180003F00C03B3EB820FA3D0FFF7A3FAC01BB6
:101028004045F3D90320BDE8F081911E01291B68D2
:1010380002D813F0007FDDE713F0020FDAE7EAB217
:101048001A701B6803F00F039D427FF47CAF8EE794
:101058000449E0688B6823F4E05303438B6089E715
:10106800003C0240003802408C18000808000020AC
:1010780004000020044B054A9B68C3F38223D35C19
:10108800034A1068D8407047003802409C1800088E
:1010980008000020044B054A9B68C3F34233D35C25
:1010A800034A1068D8407047003802409C1800086E
:1010B80008000020304A0368904212D0B0F1804FF7
:1010C8000FD0A2F57C4290420BD002F5806290428C
:1010D80007D002F58062904203D002F57842904230
:1010E80019D14A6823F070031343234A904229D048
:1010F800B0F1804F26D0A2F57C42904222D002F572
:10110800806290421ED002F5806290421AD002F5A9
:101118007842904216D0194A904213D002F5806264
:1011280090420FD002F5806290420BD0A2F598321F
:10113800904207D002F58062904203D002F58062A7
:10114800904203D1CA6823F4407313434A6923F0D9
:101158008003134303608B68C3620B688362064B8A
:10116800984203D003F58063984201D10B69036369
:1011780001234361704700BF000001400040014067
:1011880010B50446A0B190F83D3003F0FF021BB93A
:1011980080F83C2000F0AEFA022384F83D30206845
:1011A800211DFFF787FF012384F83D30002010BD83
:1011B800012010BD10B584680A4324F47F4442EA34
:1011C80003232343836010BD00684A6838B58368E9
:1011D8000C6823F07003134323F007032343502ABA
:1011E80083601ED003D8402A0BD0002038BD602A67
:1011F80027D0702AF9D10B698A68C968FFF7DAFF26
:10120800F3E7052C30D0026A036A096923F0010369
:101218000362836923F0F00343EA011383610262E6
:10122800E3E78A680D69016A046A24F0010404622C
:10123800836921F00A0123F0F00343EA05130A4306
:10124800ECE78C680D69016A21F01001016282697E
:10125800036A22F4704223F0A00342EA053243EA0B
:10126800041382610362C0E7012038BD38B590F8E5
:101278003C30012B04464FF002031CD0012580F8B6
:101288003C5080F83D30FFF79FFF30B1002384F8D1
:101298003D5084F83C30284638BD2368DA6822F08F
:1012A8004002DA60DA6822F48042DA6084F83D505D
:1012B80084F83C0038BD184638BD000090F83C3032
:1012C800012B30B54FF0020335D080F83D3003686C
:1012D8000D685C6824F0700401222C4380F83C20DF
:1012E8009A685C60154CA3421AD0B3F1804F17D0AE
:1012F800A4F57C44A34213D004F58064A3420FD024
:1013080004F58064A3420BD004F57844A34207D0C7
:1013180004F57054A34203D0A4F59434A34204D135
:10132800496822F080020A439A60012380F83D3020
:10133800002380F83C30184630BD00BF0000014053
:1013480038B50368C1681A69044622F440520A4352
:101358001A612569A268D968C0692A43656921F4B8
:1013680016412A4321F00C0102430A43DA605A6904
:10137800A16922F440720A43B0F5004F5A61254A28
:1013880029D1934203D002F58062934220D1FFF71E
:1013980081FE6268256892184FF000034FF019012A
:1013A8005B41A0FB0101FEF70BFF6421B0FBF1F4E8
:1013B80001FB1403DB003233B3FBF1F303F0070244
:1013C8005B0002EB041203F4F8731344AB6038BDFE
:1013D800FFF750FEDDE7934202D00F4A934216D141
:1013E800FFF758FE6368256819219A00A0FB0101E0
:1013F8009B0FFEF7E5FE6422B0FBF2F102FB11033E
:101408001B013233B3FBF2F303EB0113DEE7FFF703
:1014180031FEE7E7001001400014014010B5044612
:1014280040B390F8393003F0FF021BB980F8382038
:1014380000F076F92268242384F83930D36823F43D
:101448000053D3602046FFF77BFF23681A6922F414
:1014580090421A615A6922F02A025A61DA6842F403
:101468000052DA6000202023E06384F8393084F8E1
:101478003A3010BD012010BD10B594B030220021C3
:1014880008A800F0EBF90021142203A800F0E6F9FF
:101498000024164B01941A6C42F080521A641B6C9B
:1014A80003F080530193019B114B02941A6842F494
:1014B80080421A601B680E9403F480430293029BD7
:1014C8000223089301230B9308A810230C93FFF71A
:1014D80061FB0F23214603A8039304940594069403
:1014E8000794FFF72BFD14B010BD00BF0038024071
:1014F8000070004080B58AB0FFF70EF8FFF7BCFF18
:10150800142200210DEB0200002400F0A7F9554B2E
:1015180001941A6B5448554D42F001021A631A6B34
:1015280002F001020192019A02941A6B42F0080239
:101538001A631B6B03F00803224602934FF4805191
:101548000126029B1027FFF719FB4FF4805305A9CA
:1015580045480593069607940894FFF72FFA214605
:101568003A4605A800F07AF9414A2E764FF48033BE
:1015780085E80C0028463F4BAB62EE616E61AC60BB
:101588002C6185F82040EC62EC6085F83040FFF76C
:1015980003F8032305A92846069607930597FFF73E
:1015A8001BF93548354984604FF4E13380E80A0077
:1015B8000C234361C46004618461C461FFF72EFF9A
:1015C80014222F4E0DEB0200214600F047F94FF090
:1015D80080404FF4D27386E8090031233046F36027
:1015E80003940494B4603461B461FFF7C9FD062321
:1015F80005A9304605930694FFF738FE03A930463F
:1016080003940494FFF75AFE2846FFF76BF82A68FC
:1016180013689B07FCD515481A4CFFF7D9F81A4BE5
:10162800188080B20322A0F2AF3090FBF2F02A6853
:101638000D4D19306FF00201208011602388252B91
:1016480008D928464FF48051FFF79DFA6420FEF729
:101658008FFFF3E701224FF480512846FFF78EFAF7
:10166800ECE700BF00380240000C02403C000020BC
:10167800002001400100000FC40000200044004089
:1016880084000020340000202C00002082B00C4B85
:10169800002100915A6C42F480425A645A6C02F458
:1016A80080420092009A01911A6C42F080521A64AA
:1016B8001B6C03F080530193019B02B0704700BF7D
:1016C800003802400268094B9A4282B00BD10023CD
:1016D8000193074B5A6C42F480725A645B6C03F4B2
:1016E80080730193019B02B0704700BF0020014046
:1016F800003802400368B3F1804F82B00BD1002359
:101708000193064B1A6C42F001021A641B6C03F039
:1017180001030193019B02B0704700BF00380240EB
:1017280010B5044688B01422002103A800F096F8EA
:101738002268154B9A4224D103F5FA33002101910E
:101748001A6C124842F400321A641A6C02F400321D
:101758000192019A02911A6B42F001021A631B6B03
:1017680003F001030293029B0C23039302230493C7
:10177800012305930323069303A907230793FFF780
:101788001DF908B010BD00BF004400400000024031
:101798007047FEE7FEE7FEE7FEE7704770477047D1
:1017A800FEF7D4BE054BD3F8882042F47002C3F884
:1017B80088204FF000629A60704700BF00ED00E09B
:1017C800DFF834D0002103E00C4B5B584350043160
:1017D8000B480C4B42189A42F6D30B4A02E00023FE
:1017E80042F8043B094B9A42F9D3FFF7DBFF00F0BC
:1017F80011F8FFF77FFE704700000220B4180008B8
:10180800000000200C0000200C000020080100202F
:10181800FEE7000070B50D4E0D4CA41BA41000256A
:10182800A54209D10B4E0C4C00F020F8A41BA410C3
:101838000025A54205D170BD56F8253098470135D9
:10184800EEE756F8253098470135F2E7AC1800085E
:10185800AC180008AC180008B01800080244034689
:10186800934200D1704703F8011BF9E7F8B500BFB0
:10187800F8BC08BC9E467047F8B500BFF8BC08BC69
:041888009E467047C1
:10188C000000000000000000010203040607080924
:08189C0000000000010203043A
:0818A40054E9FF7F0100000080
:0418AC00AD01000882
:0418B00089010008A2
:0C18B40001000000100000000024F400FF
:04000005080017C90F
:00000001FF
