:020000040800F2
:10000000008001205D1A0008F1190008F3190008AA
:10001000F5190008F7190008F91900080000000098
:10002000000000000000000000000000F10D0008CA
:10003000FB19000800000000810E0008FD190008EF
:10004000AD1A0008AD1A0008AD1A0008AD1A000874
:10005000AD1A0008AD1A0008AD1A0008AD1A000864
:10006000AD1A0008AD1A0008AD1A0008AD1A000854
:10007000AD1A0008AD1A0008AD1A0008AD1A000844
:10008000AD1A0008AD1A0008AD1A0008AD1A000834
:10009000AD1A0008AD1A0008AD1A0008AD1A000824
:1000A000AD1A0008AD1A0008AD1A0008AD1A000814
:1000B000AD1A0008AD1A0008AD1A0008AD1A000804
:1000C000AD1A0008AD1A0008AD1A0008AD1A0008F4
:1000D000AD1A0008AD1A0008AD1A0008AD1A0008E4
:1000E000AD1A0008AD1A0008AD1A0008AD1A0008D4
:1000F000AD1A0008AD1A0008AD1A0008AD1A0008C4
:10010000AD1A0008AD1A0008AD1A0008AD1A0008B3
:10011000AD1A0008AD1A0008AD1A0008AD1A0008A3
:10012000AD1A0008AD1A0008AD1A0008AD1A000893
:10013000AD1A0008AD1A0008AD1A0008AD1A000883
:10014000AD1A0008AD1A0008AD1A0008AD1A000873
:10015000AD1A0008AD1A0008AD1A0008AD1A000863
:10016000AD1A0008AD1A0008AD1A0008AD1A000853
:10017000AD1A0008AD1A0008AD1A00080000000012
:08018000AD1A0008AD1A0008D9
:1001900010B5054C237833B9044B13B10448AFF3C1
:1001A00000800123237010BD10000020000000001B
:1001B000081B000808B5034B1BB103490348AFF304
:1001C000008008BD0000000014000020081B00088B
:1001D00038B50F4B0546186808B9012038BD0D4ADF
:1001E0004FF47A73B3FBF0F31068B0FBF3F000F058
:1001F00083F804460028F0D10F2DEED80246294698
:100200004FF0FF3000F044F8034B20461D6038BD2E
:10021000000000200C00002004000020094A1368A0
:1002200043F4807310B50320136000F01FF80F2013
:10023000FFF7CEFF044618B901F0BAFB204610BD07
:100240000124FBE700200240034A044913680968BF
:100250000B441360704700BF300D002000000020E9
:10026000014B1868704700BF300D0020074AD36863
:1002700023F4E0631B041B0C43F0BF63000243F450
:10028000003300F4E0600343D360704700ED00E00A
:10029000174B30B5DC68C4F30224C4F10703251DF5
:1002A000042B28BF0423062D4FF0010505FA03F3A4
:1002B00003F1FF338CBF033C00241940A14005FA31
:1002C00004F4013C2240002842EA01024FEA0212F3
:1002D000ADBF00F1604000F00F00064B00F561403B
:1002E000B5BFD2B2D2B21A5480F8002330BD00BFDD
:1002F00000ED00E014ED00E00138B0F1807F0AD29B
:10030000064B074A5860F02182F82310002007228C
:1003100098601A6070470120704700BF10E000E04D
:1003200000ED00E02DE9F04F85B00B68DFF8A88103
:10033000674C01930023019ADA4002D105B0BDE871
:10034000F08F0126019A9E4012EA060E00F0B1805D
:100350004A6822F01007022F16D14FEAD30900EBAA
:10036000890903F0070AD9F820504FEA8A0A4FF0AA
:100370000F0C0CFA0AFC25EA0C0C0D6905FA0AF5BB
:1003800045EA0C05C9F820504FEA430C0325D0F884
:1003900000B005FA0CF5ED4302F0030A0BEA050B79
:1003A0000AFA0CF9013F49EA0B09012FC0F8009045
:1003B00011D8876805EA0709CF6807FA0CF747EAFA
:1003C00009078760476827EA0609C2F300179F40BC
:1003D00047EA09074760BAF1030F07D1C76A27EA5E
:1003E0000606C2F3C0079F403E43C662C66835405A
:1003F0008E6806FA0CF63543C560D50059D5D8F895
:10040000605045F00105C8F86050D8F8605023F0FE
:10041000030606F1804605F0010506F580360395D2
:1004200003F0030C039DB5684FEA8C0C0F2707FA05
:100430000CF7B0F1904F25EA07073CD0254DA842B4
:100440003BD005F58065A84239D005F58065A84206
:1004500037D005F58065A84235D005F58065A842FE
:1004600033D005F58065A84214BF0725062505FA97
:100470000CF53D43B56025686FEA0E06D70354BFFF
:1004800035404EEA050525606568970354BF354041
:100490004EEA05056560A568D70254BF35404EEAAF
:1004A0000505A560E568920254BF35404EEA050592
:1004B000E56001333FE70025D9E70125D7E70225AD
:1004C000D5E70325D3E70425D1E70525CFE700BF0E
:1004D0000004014000040048001002400AB181619C
:1004E0007047816270470000024B186800F4C060DA
:1004F000704700BF00700040174B1A68B0F5007FCE
:1005000002F4C0621CD1B2F5007F15D01A6822F443
:10051000C06242F400721A60104A116832224A43E3
:100520000F49B2FBF1F2194601325869400500D576
:1005300022B94B695B050DD400207047013AF4E7FE
:10054000B2F5806F1FBF1A6822F4C06242F4806265
:100550001A60F1E703207047007000400C00002093
:1005600040420F0037B51E4DAB6DDA00044618D57A
:10057000FFF7BAFFB0F5007F23D1802C29D9A02C3A
:100580008CBF02200120174A136823F0070303439E
:100590001360136803F00703181A18BF012003B093
:1005A00030BDAB6D43F08053AB65AB6D03F0805352
:1005B0000193019BFFF798FFAB6D23F08053AB6570
:1005C000D8E7802C07D808D0A4F1700358425841CE
:1005D000D9E70020D7E70320D5E70220D3E700BF03
:1005E0000010024000200240224B9A68D96812F0A5
:1005F0000C0205D00C2A15D101F00301012918D1F4
:1006000019681D48090755BFD3F894101968C1F33C
:100610000321C1F3031150F821004AB30C2A09D079
:1006200000207047042A22D0082A144818BF00204E
:1006300070470020DA6802F00302022A15D00F4941
:10064000032A08BF0846DA68D968DB68C3F3416348
:10065000C1F30621C2F302120133484301325B00A9
:10066000B0FBF2F0B0FBF3F070470548EBE704484D
:10067000704700BF00100240581B000800127A00AB
:100680000024F4002DE9F743054608B9012047E0AE
:10069000A64C0368A668E768DB0606F00C0607F0C0
:1006A000030773D51EB10C2E52D1012F50D12368F0
:1006B000980702D5AB69002BE8D02368286A190790
:1006C00056BFD4F8943023681B0903F0F00383422B
:1006D00029D2FFF747FF0028D8D1236843F0080349
:1006E000236023682A6A23F0F003134323606368BE
:1006F000EA6923F47F4343EA02236360FFF774FF50
:10070000A3688B4AC3F30313D35C03F01F03D840E1
:10071000884B1860884B1868FFF75AFD002835D0C1
:1007200003B0BDE8F083236843F008032360236827
:1007300023F0F003034323606368EA6923F47F43F3
:1007400043EA02236360FFF70DFF0028D6D09DE740
:10075000AB69002B36D0236843F001032360FFF719
:100760007FFD804623689A0724D5236843F0080359
:10077000236023682A6A23F0F0031343236063682D
:10078000EA6923F47F4343EA022363602B68D807B6
:1007900029D42B68990767D42B68180700F19C802F
:1007A0002B68590700F1CA80A86A002840F03381FD
:1007B0000020B5E7FFF754FDA0EB08000228D1D9CF
:1007C0000320ADE7236823F001032360FFF748FD12
:1007D000804623689B07D9D5FFF742FDA0EB0800B0
:1007E0000228F6D9ECE7082E03D00C2E08D1032FEF
:1007F00006D123689A03CCD56B68002BC9D145E795
:100800006B68B3F5803F10D1236843F480332360D5
:10081000FFF726FD804623689B03BAD4FFF720FD2F
:10082000A0EB08006428F6D9CAE7B3F5A02F04D1DD
:10083000236843F480232360E6E7226822F48032B1
:100840002260226822F480222260002BE0D1FFF790
:1008500007FD8046236898039BD5FFF701FDA0EBB9
:1008600008006428F6D9ABE7042E03D00C2E10D173
:10087000022F0ED12368590503D5EB68002B3FF4F6
:1008800005AF63682A6923F0F85343EA02636360A3
:1008900082E7EB687BB1236843F480732360FFF742
:1008A000DFFC074623685A05EBD4FFF7D9FCC01BD1
:1008B0000228F7D984E7236823F480732360FFF7C5
:1008C000CFFC074623685B057FF566AFFFF7C8FCE2
:1008D000C01B0228F6D973E76B699BB1D4F894303A
:1008E00043F00103C4F89430FFF7BAFC0746D4F88C
:1008F00094309A073FF554AFFFF7B2FCC01B0228B3
:10090000F5D95DE7D4F8943023F00103C4F89430AE
:10091000FFF7A6FC0746D4F894309B077FF540AF5D
:10092000FFF79EFCC01B0228F5D949E700100240E2
:10093000451B00080C00002004000020A36DD80017
:1009400029D4A36D43F08053A365A36D03F08053B6
:100950000193019B4FF00108794F3B68D9051DD5E4
:10096000AB68012B2BD1D4F8903043F00103C4F8CD
:100970009030FFF775FC41F288390746D4F8903083
:100980009B0742D5B8F1000F3FF40EAFA36D23F0E3
:100990008053A36508E74FF00008DDE73B6843F4A8
:1009A00080733B60FFF75CFC81463B68DA05D7D477
:1009B000FFF756FCA0EB09000228F6D900E7052B4B
:1009C00006D1D4F8903043F00403C4F89030CAE75D
:1009D000D4F8902022F00102C4F89020D4F890209E
:1009E00022F00402C4F89020002BC2D1FFF738FC9B
:1009F00041F288390746D4F890309807C2D5FFF7FE
:100A00002FFCC01B4845F6D9DAE6FFF729FCC01BCE
:100A10004845B3D9D4E60C2E5CD02368022823F0D5
:100A2000807323603BD1FFF71BFC064623689901C6
:100A30002FD4E268434B1340EA6A13436A6B43EADC
:100A400002232A6B013A43EA0213AA6B120943EA12
:100A50004243EA6B5208013A43EA42532A6C520875
:100A6000013A43EA4263E360236843F08073236002
:100A7000E36843F08073E360FFF7F2FB0546236809
:100A80009A013FF595AEFFF7EBFB401B0228F6D924
:100A900096E6FFF7E5FB801B0228C7D990E623689E
:100AA00013F0205F02BFE36823F00303E360E36811
:100AB00023F0887323F48033E360FFF7D1FB05460E
:100AC00023689B017FF574AEFFF7CAFB401B022829
:100AD000F6D975E601283FF423AEE368EA6A03F02D
:100AE000030191427FF4D2AD296B03F0700201390A
:100AF000B2EB011F7FF4CAAD696B03F4FE42B2EBA7
:100B0000012F7FF4C3ADAA6B073A03F4003118BF7D
:100B1000012291427FF4BAADEA6B520803F4C0019E
:100B2000013AB1EB425F7FF4B1AD2A6C5208013A51
:100B300003F0C063B3EB426F14BF01200020EFE568
:100B4000007000408C809DF92DE9F0410E4604466E
:100B500010B90120BDE8F081414A136803F0070392
:100B60008B422AD32368D90732D421688A075CD400
:100B70003B4A136803F007039E425ED311F0040F53
:100B8000384D65D10B0706D5AB68226923F4605355
:100B900043EAC203AB60FFF727FDAB68324AC3F3F9
:100BA0000313BDE8F041D35C03F01F03D8402F4B83
:100BB00018602F4B1868FFF70BBB136823F007036F
:100BC0000B431360136803F007039942C1D1C9E7CF
:100BD0006268244D032A2B681BD113F0007FB8D024
:100BE000AB6823F003031343AB60FFF739FB41F21B
:100BF00088380746AB68626803F00C03B3EB820FDA
:100C0000B3D0FFF72DFBC01B4045F3D90320BDE84F
:100C1000F081022A02D113F4003FE0E712B913F089
:100C2000020FDCE713F4806FD9E70E4AA0689368DF
:100C300023F0F003034393609AE7136823F007035C
:100C400033431360136803F007039E4281D195E795
:100C5000AB68E26823F4E0631343AB6092E700BF44
:100C60000020024000100240451B00080C0000203C
:100C70000400002008B500F033FC002008BD30B5AA
:100C8000B0F90840028A0B4690E8220085B0842C17
:100C900014BF0334002403A801900094284600F0F8
:100CA0004FFB01280CBF0398002005B030BD08B5EC
:100CB000002808BF012000F061FD002008BD00F100
:100CC000080343604FF0FF32C3600361002382607A
:100CD0000360704700230361704743684B609A6864
:100CE0008A609A6851609960036808610133036003
:100CF00070470A68531C30B50AD103695A684A60C4
:100D000091608B605960036808610133036030BDF6
:100D100000F108035C682568AA42EFD32346F9E78F
:100D20004168826803698A608268516059688842B4
:100D300008BF5A60002202611A68013A1A601868F6
:100D40007047000082B0002301930D4B1B680133F4
:100D500008D04FF0500383F31188BFF36F8FBFF3B8
:100D60004F8FFEE74FF0500383F31188BFF36F8F6F
:100D7000BFF34F8F019B002BFCD002B0704700BF28
:100D80000800002008480068006880F308884FF0D9
:100D9000000080F3148862B661B6BFF34F8FBFF3D3
:100DA0006F8F00DF00BF000008ED00E0DFF80C00EF
:100DB000016841F4700101607047000088ED00E0B7
:100DC0004FF0807340F8043C074B40F80C3C21F096
:100DD00001016FF0020340F8081C40F8202C40F895
:100DE000243C4438704700BF450D00080000000057
:100DF000074B19680868B0E8F04F80F30988BFF323
:100E00006F8F4FF0000080F311887047AFF30080C0
:100E1000040C00204FF0500383F31188BFF36F8F51
:100E2000BFF34F8F0A4A13680133012B13600DD1B2
:100E3000084B1B6813F0FF0F08D04FF0500383F3EB
:100E40001188BFF36F8FBFF34F8FFEE7704700BF6E
:100E50000800002004ED00E0084A136843B94FF091
:100E6000500383F31188BFF36F8FBFF34F8FFEE7FB
:100E7000013B13600BB983F3118870470800002011
:100E8000EFF30980BFF36F8F154B1A681EF0100F38
:100E900008BF20ED108A20E9F04F10602DE909000D
:100EA0004FF0500080F31188BFF34F8FBFF36F8F67
:100EB00000F088FC4FF0000080F3118809BC19682D
:100EC0000868B0E8F04F1EF0100F08BFB0EC108AB1
:100ED00080F30988BFF36F8F704700BFAFF30080C6
:100EE000040C002008B54FF0500383F31188BFF3C2
:100EF0006F8FBFF34F8F00F037FB18B1034B4FF0EC
:100F000080521A60002383F3118808BD04ED00E0CD
:100F1000084A0949002313600B60084B4FF47A71AB
:100F20001B68B3FBF1F30649013B0B600723136019
:100F3000704700BF10E000E018E000E00C00002067
:100F400014E000E0394B3A4A13B51968914208D1D0
:100F50004FF0500383F31188BFF36F8FBFF34F8FB0
:100F6000FEE71A68334B9A4208D14FF0500383F3DF
:100F70001188BFF36F8FBFF34F8FFEE72E4B1A78A8
:100F8000D2B20192FF221A701B782C4ADBB28DF884
:100F900003309DF8033003F050031370284B0722F1
:100FA0001A6000219DF80300000602F1FF340DD401
:100FB00001B11A601A68032A11D04FF0500383F36D
:100FC0001188BFF36F8FBFF34F8FFEE79DF80320AB
:100FD0005200D2B28DF8032001212246E2E712022C
:100FE00002F4E0621A60019B134ADBB21370154BE6
:100FF0001A6842F470021A601A6842F070421A606D
:10100000FFF786FF104B00241C60FFF7CFFE0F4A4E
:10101000136843F040431360FFF7B4FE00F0D2FBC7
:10102000FFF790FE204602B010BD00BF00ED00E0CB
:1010300071C20F4170C20F4100E400E02C0000209B
:101040003000002020ED00E00800002034EF00E038
:1010500010B50F4B1A68824218D35C681919884280
:1010600001BF4168184609195960446801198A424C
:1010700007D1084909688A421FBF516812680919D7
:1010800041609842026018BF186010BD1346E1E746
:10109000FC0B0020340000202DE9F041044600F054
:1010A0005BFA3E493E4D0B680BBB3E4A56071FBFDD
:1010B000D01D20F0070002F6B8331B1A14BF0246F9
:1010C00040F6B8331344083B23F00703364E0B6059
:1010D00000207060326058601860981A1360334BBB
:1010E00050601860324B18604FF000432B602F683F
:1010F000274216D1002C41D004F1080358071CBF29
:1011000023F00703083363B1294A1668B3429046B7
:1011100007D8254A15686868834204D809688D4253
:1011200007D100242AE02C68002CF7D02A46254657
:10113000F1E7296814681160C21A102A0FD9E8185B
:10114000410708D04FF0500383F31188BFF36F8F2E
:10115000BFF34F8FFEE742606B60FFF779FF1349E3
:101160006B680868F61A1F4386424FF00003C8F800
:10117000006038BF0E6008346F602B6000F086FAA4
:10118000630708D04FF0500383F31188BFF36F8FCC
:10119000BFF34F8FFEE72046BDE8F081340000200A
:1011A000F00B002038000020FC0B0020F80B002082
:1011B000F40B002010B5044670B3184A50F8043CF4
:1011C0001268134208D14FF0500383F31188BFF324
:1011D0006F8FBFF34F8FFEE750F8081C41B14FF0FF
:1011E000500383F31188BFF36F8FBFF34F8FFEE778
:1011F00023EA020340F8043C00F0AEF9084A54F830
:10120000043C1168A4F108000B441360FFF720FFB1
:10121000BDE8104000F03ABA10BD00BFF00B00204E
:10122000F40B0020064A13681968064B19B94FF0F1
:10123000FF321A6070471268D268D2685268F8E7C5
:10124000080C0020E00C0020F8B51B4B1B4E1D685D
:101250000446306804300F46FFF762FD334640B95C
:101260003168174EC96A32680120884022EA0002BC
:101270003260621C07D137B1196812480431BDE8E9
:10128000F840FFF72ABD2C441A68A542546007D9DC
:101290000D4A10681968BDE8F8400431FFF729BD10
:1012A0000A4A106819680431FFF723FD084B1A68D1
:1012B000944238BF1C60F8BD280D0020040C0020AB
:1012C000B00C0020000D00200C0C0020080C0020A9
:1012D000E00C002080B5DFF86480144F144C154EEC
:1012E000236863B9144B1B68012BF8D94FF0805366
:1012F000C8F80030BFF34F8FBFF36F8FEEE7FFF7F3
:1013000089FDFB68DD68281DFFF70AFD3368013B96
:1013100033602368013B2360FFF79EFD286BFFF7D6
:1013200049FF2846FFF746FFDAE700BF140D00200B
:10133000A00C00209C0C0020100C002004ED00E00C
:101340002DE9F84F4FEA820A804650460F469946EB
:101350000B9EFFF7A1FE0546002800F09680542062
:10136000FFF79AFE0446002800F08C80AAF1040AD8
:10137000056355447B1E25F0070A00F134020F3740
:10138000597802F8011B13F8011F09B1BB42F7D1CC
:101390000A9D062D28BF06254FF0000B271DE5628C
:1013A0006564384684F843B0C4F848B0FFF792FC4F
:1013B000C5F1070504F11800FFF78CFCC4F84CB028
:1013C0002461A561646284F850B04A4641465046A3
:1013D000FFF7F6FC206006B13460FFF71BFD324BCF
:1013E000324E1A68DFF8F08001321A603568002D3D
:1013F0004ED134601B68012B1DD108EB050014355C
:10140000FFF75DFC8C2DF8D1DFF8D090284D4846D1
:10141000FFF755FC2846FFF752FC2648FFF74FFC24
:101420002548FFF74CFC2548FFF749FC244BC3F83F
:101430000090244B1D60244A244913680868013336
:101440001360E26A012505FA02F3034314200B60DE
:1014500000FB02803946FFF740FCFFF7FDFC1C4B08
:101460001B6863B13368DA6AE36A9A4207D2194BA0
:101470004FF080521A60BFF34F8FBFF36F8F284633
:10148000BDE8F88F2846FFF795FE4FF0FF35F6E7E9
:101490000F4B1B68002BCED13368DA6AE36A9A429D
:1014A00098BF3460C7E700BF9C0C0020040C0020EC
:1014B000C80C0020E80C0020140D0020000D0020B6
:1014C000080C00200C0C0020AC0C0020B00C0020FC
:1014D000FC0C002004ED00E0100C0020B40C0020F7
:1014E00013B5174B0193002400942346802215491D
:1014F0001548FFF725FF012814D14FF0500383F35F
:101500001188BFF36F8FBFF34F8F104B4FF0FF3237
:101510001A600F4B18600F4B1C6002B0BDE8104002
:10152000FFF710BD013008D14FF0500383F311884D
:10153000BFF36F8FBFF34F8FFEE702B010BD00BF48
:10154000DC0C0020341B0008D5120008E00C002041
:10155000FC0C0020280D0020024A136801331360A0
:10156000704700BFA80C00202DE9F84F3C4B1B68CA
:10157000002B53D13B4B1C6801341C60BCB93A4B67
:101580001A68126842B14FF0500383F31188BFF319
:101590006F8FBFF34F8FFEE7344A196810681860E9
:1015A0001160334A136801331360FFF73BFE314D7E
:1015B000314F2B689C424FF0000B3ED3DFF8A880E0
:1015C000DFF8C490D8F80020126872BB4FF0FF32E9
:1015D0002A6032E006F1040A5046FFF7A1FBB16A27
:1015E00019B106F11800FFF79BFBF06AD9F800303B
:1015F000012202FA00F11943204BC9F800104FF004
:10160000140E51460EFB0030FFF767FB3868F16A95
:10161000C26A914228BF4FF0010BD3E7184A136802
:10162000013313604FF0000B11E0D8F80020D268AE
:10163000D66871688C42CDD229603A680F4BD16A66
:1016400014224A439A58022A28BF4FF0010B0D4A30
:101650001268002A18BF4FF0010B5846BDE8F88FFA
:10166000A80C0020280D0020080C00200C0C0020E5
:10167000E40C0020E00C0020040C0020100C0020E2
:10168000A40C00202C0D0020B00C00202DE9F84304
:10169000314C236843B94FF0500383F31188BFF3F3
:1016A0006F8FBFF34F8FFEE7FFF7B4FB2368013B5B
:1016B000236024682CB10024FFF7CEFB2046BDE850
:1016C000F883264B1B68002BF5D0DFF8A890244F39
:1016D000DFF8A480D9F80030E3B90CB1FFF7A2FD20
:1016E000204D2C6844B1204E0127FFF73DFF00B18B
:1016F0003760013CF9D12C601B4B1B68002BDAD002
:101700001A4B4FF080521A60BFF34F8FBFF36F8FA9
:101710000124D1E7D9F80C30DC68261D04F118004B
:10172000FFF7FEFA3046FFF7FBFAE26A3968012557
:1017300005FA02F314200B4300FB028031463B60A4
:10174000FFF7CBFA0A4BE26A1B68DB6A9A4224BFB6
:10175000054B1D60BEE700BFA80C00209C0C0020BC
:10176000B00C0020A40C00202C0D002004ED00E0A3
:10177000040C0020E80C0020100C002008B540B933
:101780000E4B4FF080521A60BFF34F8FBFF36F8F35
:1017900008BD0B4B196841B14FF0500383F311881A
:1017A000BFF36F8FBFF34F8FFEE7FFF7D5FEFFF755
:1017B0004BFDFFF76BFF0028E2D008BD04ED00E011
:1017C000A80C0020174B1A68174B10B512B1012254
:1017D0001A6010BD1A60154B1B68B3FA83F3DBB2B5
:1017E000C3F11F03142212495A4388188C5844B974
:1017F0004FF0500383F31188BFF36F8FBFF34F8F08
:10180000FEE744680832646844600A44944204BFB6
:1018100062684260142202FB03135B68DA68054BBE
:10182000D6E700BFA80C00202C0D0020B00C002033
:10183000100C0020040C0020054B1B6833B1054B35
:101840001B68002B0CBF022000207047012070474E
:10185000FC0C0020A80C002008B50120FFF727FA97
:10186000FBE700B597B04422002105A800F044F939
:1018700000211422684600F03FF94FF4807208926C
:1018800010220992012211920A220223129205A823
:101890000722139205930F93109314931593FEF759
:1018A000F1FE0F2003238DE8090004210023684680
:1018B000029303930493FFF747F94FF40070FEF788
:1018C0001BFE17B05DF804FB00B58BB0FEF7A6FC5D
:1018D000FFF7C7FF142200210DEB020000F00CF906
:1018E0002E4B2F4DDA6C42F00402DA64DA6C02F00F
:1018F00004020192019ADA6C42F08002DA64DA6C36
:1019000002F080020292029ADA6C42F00102DA647A
:10191000DA6C02F001020392039ADA6C42F00202DE
:10192000DA64DB6C03F002030022049320214FF001
:101930009040049BFEF7D2FD4FF400530026059320
:1019400005A9184B184806930796FEF7EBFC0C23E5
:101950000593022306930323089305A907234FF059
:10196000904009930796FEF7DDFC2023059305A917
:1019700001234FF09040069307960896FEF7D2FC9D
:101980000FCD05AC0FC42B682360314605A8FFF7C7
:1019900076F9064B1860FFF76DF9FEE7001002407C
:1019A000201B00080000211000080048340D002012
:1019B0000E4B07B51A6E42F001021A661A6E02F05B
:1019C00001020092009A9A6D42F080529A659B6DD6
:1019D00003F08053019300220F216FF00100019B5F
:1019E000FEF756FC03B05DF804FB00BF0010024098
:1019F0007047FEE7FEE7FEE7FEE7704708B5FEF733
:101A000023FCFFF719FF012803D0BDE80840FFF7CA
:101A100069BA08BD0F49D1F8883043F47003C1F8A2
:101A200088300D4B1A68002042F001021A6098605D
:101A30001A6822F0A85222F410221A604FF4805241
:101A4000DA601A6822F480221A6098614FF000630D
:101A50008B60704700ED00E000100240DFF834D0EA
:101A6000002103E00C4B5B58435004310B480C4BF6
:101A700042189A42F6D30B4A02E0002342F8043B94
:101A8000094B9A42F9D3FFF7C5FF00F011F8FFF7B1
:101A90001BFFFEE700800120901B000800000020D3
:101AA0001000002010000020380D0020FEE700008C
:101AB00070B50D4E0D4CA41BA4100025A54209D1F4
:101AC0000B4E0C4C00F020F8A41BA4100025A542DE
:101AD00005D170BD56F8253098470135EEE756F828
:101AE000253098470135F2E7881B0008881B00085D
:101AF000881B00088C1B000802440346934200D157
:101B0000704703F8011BF9E7F8B500BFF8BC08BC43
:101B10009E467047F8B500BFF8BC08BC9E467047AB
:101B2000391B0008591800080000000000000000E0
:101B30008000000049444C450064656661756C7422
:101B40005461736B000000000000000000010203FC
:101B50000406070809000000A0860100400D0300EC
:101B6000801A060000350C0040420F0080841E00E1
:101B700000093D0000127A000024F40000366E01D6
:081B80000048E801006CDC02E2
:041B8800B50100089B
:041B8C0091010008BB
:101B90000100000010000000AAAAAAAA00093D0046
:0400000508001A5D78
:00000001FF
